:100000000C9434000C94AF010C94C1010C94DF01EA
:100010000C9451000C9451000C9460020C9451000B
:100020000C9451000C9451000C9451000C9451000C
:100030000C9451000C9451000C9451000C945100FC
:100040000C9451000C9451000C94FB010C94510041
:100050000C9451000C9451000C9451000C945100DC
:100060000C9451000C94510011241FBECFEFD8E026
:10007000DEBFCDBF11E0A0E0B1E0ECEAF5E002C0E8
:1000800005900D92A831B107D9F721E0A8E1B1E0C0
:1000900001C01D92AC31B207E1F70E94A3020C949B
:1000A000D4020C9400003B9A439A3C9A449A559A85
:1000B000569A229A219A84B5836084BD84B580685B
:1000C00084BD84B5806284BD85B5816085BDA0E8AE
:1000D000B0E08C9182608C93E1E8F0E080818861EF
:1000E00080838C91806A8C9380818260808380E0A1
:1000F00098E49093870080938600EAE8F0E08EE52C
:1001000094E09183808380819181845F9140829586
:100110009295907F9827807F9827909319018093DC
:10012000180184EF91E090938900809388001092E9
:100130001B0110921A01089518163CF4439A880F77
:10014000990B97FD07C088BD08954398880F990BB8
:1001500097FFF9CF91958195910988BD089518165B
:100160003CF4449A880F990B97FD07C087BD08950A
:100170004498880F990B97FFF9CF91958195910934
:1001800087BD089540911801509119019A01280FD7
:10019000391F21356DE4360724F591958195910934
:1001A000481759079CF03093190120931801359591
:1001B00027953595279535952795359527952C5075
:1001C0003E4F30938B0020938A00089510921901BE
:1001D0001092180124EF31E030938B0020938A00B5
:1001E000089580E59DE4909319018093180129EC0E
:1001F00036E030938B0020938A00089540911A01D5
:1002000050911B019A01280F391F21306EE13607EA
:1002100024F5919581959109481759079CF03093E1
:100220001B0120931A01359527953595279535950E
:100230002795359527952C503E4F30938900209374
:100240008800089510921B0110921A0124EF31E0EA
:100250003093890020938800089580E09EE1909378
:100260001B0180931A0124ED33E030938900209321
:10027000880008951092C50083E08093C400E0ECEC
:10028000F0E080818D7F808388E98093C10086E0E3
:100290008093C20008959091C00095FFFCCF809399
:1002A000C60008958091C00087FFFCCF8091C600F2
:1002B0000895DC012C91222371F030E09091C00070
:1002C00095FFFCCF2093C6003F5FFD01E30FF11DBA
:1002D00020812111F3CF0895DC0170E06150710994
:1002E0001616170604F540E020E030E09091C000BB
:1002F00097FFFCCF5091C6009091C00095FFFCCFB6
:100300005093C600FD01E20FF31F50834F5F242F6F
:1003100030E02617370754F32F5F3F4FFD01E20F00
:10032000F31F1082089521E030E0FD01E20FF31F7A
:10033000108208955298539820985A985B98289A5A
:1003400087B1876087B988B1887F88B9E9E6F0E02E
:1003500080818360808380818C60808308951F9278
:100360000F920FB60F9211248F93A895E89888B139
:1003700088B9409AE99A8F910F900FBE0F901F9005
:1003800018951F920F920FB60F9211248F93EF932F
:10039000FF93A895E9984198429AE8E6F0E08081B9
:1003A00081608083EBE6F0E0808180628083FF9152
:1003B000EF918F910F900FBE0F901F9018951F9285
:1003C0000F920FB60F9211248F93EF93FF93A8957E
:1003D0004298E8E6F0E080818E7F8083EBE6F0E0F3
:1003E00080818F7D8083FF91EF918F910F900FBE61
:1003F0000F901F9018951F920F920FB60F92112415
:100400000F931F932F933F934F935F936F937F931C
:100410008F939F93AF93BF93CF93DF93EF93FF930C
:100420008091C6008093C600803459F18C3439F134
:10043000E0F4813401F1863419F4A895409AE89AE1
:10044000FF91EF91DF91CF91BF91AF919F918F91EC
:100450007F916F915F914F913F912F911F910F91DC
:100460000F900FBE0F901F901895813631F08C368B
:1004700039F72D98E5CF2C9AE3CF2C98E1CF2D9A20
:10048000DFCF0E945201082F0E945201182F0E94B4
:100490005201D82F0E945201C82F802F0E949C0029
:1004A000812F0E94AF0025E0D202C00111240E94DA
:1004B000C2002BEFC202C00111240E94FE00C0CF77
:1004C0001F920F920FB60F9211242F933F934F93C9
:1004D0005F936F937F938F939F93AF93BF93EF93AC
:1004E000FF9388B1887F88B9E898E998E8E6F0E05A
:1004F00080818E7F8083EBE6F0E080818F7D80833A
:10050000E0E6F0E080818064808380E091E00E94FA
:100510005901FF91EF91BF91AF919F918F917F9181
:100520006F915F914F913F912F910F900FBE0F9060
:100530001F901895A895E0E6F0E08081886180839F
:1005400086E480830895A89514BE80916000886138
:100550008093600010926000F8940E943A010E941B
:1005600053000E949A01259A249A87B1876087B91F
:1005700083B7817F83BF83B7816083BF8AE091E0C7
:100580000E945901A8958091600088618093600065
:1005900086E480936000789483B7816083BF8895F8
:0C05A00083B78E7F83BFF8CFF894FFCFA5
:1005AC005761746368646F670A0042542066756E05
:0805BC0063696F6E612100000C
:00000001FF
