:100000000C9434000C9489010C949B010C94B9015C
:100010000C9451000C9451000C943A020C94510031
:100020000C9451000C9451000C9451000C9451000C
:100030000C9451000C9451000C9451000C945100FC
:100040000C9451000C9451000C94D5010C94510067
:100050000C9451000C9451000C9451000C945100DC
:100060000C9451000C94510011241FBECFEFD8E026
:10007000DEBFCDBF11E0A0E0B1E0E6E2F5E002C0F6
:1000800005900D92AE30B107D9F721E0AEE0B1E0B6
:1000900001C01D92A231B207E1F70E9467020C94E1
:1000A00091020C9400003B9A439A3C9A449A559AC8
:1000B000569A229A219A84B5836084BD84B580685B
:1000C00084BD84B5806284BD85B5816085BDA0E8AE
:1000D000B0E08C9182608C93E1E8F0E080818861EF
:1000E00080838C91806A8C9380818260808380E0A1
:1000F00098E49093870080938600EAE8F0E08EE52C
:1001000094E09183808380819181845F914024E099
:10011000880F991F2A95E1F790930F0180930E01A4
:1001200084EF91E0909389008093880010921101F0
:10013000109210010895181614F4439A01C04398C0
:10014000880F990B97FF03C091958195910988BD00
:100150000895181614F4449A01C04498880F990B16
:1001600097FF03C091958195910987BD08954091AE
:100170000E0150910F019A01280F391F21356DE4AE
:1001800036073CF080E59DE490930F0180930E01CB
:100190000FC0919581959109481759072CF4109239
:1001A0000F0110920E0104C030930F0120930E0135
:1001B00080910E0190910F0124E0959587952A95E5
:1001C000E1F78C509E4F90938B0080938A000895A6
:1001D00040911001509111019A01280F391F2130CF
:1001E0006EE136073CF080E09EE190931101809330
:1001F00010010FC0919581959109481759072CF46A
:10020000109211011092100104C03093110120933B
:100210001001809110019091110124E0959587952E
:100220002A95E1F78C509E4F909389008093880027
:1002300008951092C50083E08093C400E0ECF0E0E4
:1002400080818D7F808388E98093C10086E08093E0
:10025000C20008959091C00095FFFCCF8093C60026
:1002600008958091C00087FFFCCF8091C60008955B
:100270000F931F93CF938C01C0E0F801EC0FF11D99
:100280008081882321F00E942A01CF5FF6CFCF9191
:100290001F910F910895CF92DF92EF92FF920F93EB
:1002A0001F93CF93DF936C0110E0C62FD0E021970E
:1002B000212F30E07601E20EF31E2C173D074CF49F
:1002C0000E943101082F0E942A01F70100831F5F5D
:1002D000EFCFF7011182DF91CF911F910F91FF9026
:1002E000EF90DF90CF9008955298539820985A98A5
:1002F0005B98289A87B1876087B988B1887F88B969
:10030000E9E6F0E080818360808380818C60808377
:1003100008951F920F920FB60F9211248F93A895F4
:10032000E89888B188B9409AE99A8F910F900FBEEA
:100330000F901F9018951F920F920FB60F921124D5
:100340008F93EF93FF93A895E9984198429AE8E636
:10035000F0E0808181608083EBE6F0E08081806264
:100360008083FF91EF918F910F900FBE0F901F90A0
:1003700018951F920F920FB60F9211248F93EF933F
:10038000FF93A8954298E8E6F0E080818E7F808315
:10039000EBE6F0E080818F7D8083FF91EF918F917C
:1003A0000F900FBE0F901F9018951F920F920FB6CF
:1003B0000F9211240F931F932F933F934F935F93AB
:1003C0006F937F938F939F93AF93BF93CF93DF935D
:1003D000EF93FF938091C6008093C6008034B9F0FC
:1003E0008C3479F040F4813471F0863471F5A8953D
:1003F000409AE89A2AC0813641F08C3631F52D9822
:1004000024C02D9A22C02C9A20C02C981EC00E9475
:100410003101082F0E943101182F0E943101D82F7D
:100420000E943101C82F802F0E949B00812F0E94C3
:10043000A90025E0D202C00111240E94B7002BEFD1
:10044000C202C00111240E94E800FF91EF91DF91E8
:10045000CF91BF91AF919F918F917F916F915F915C
:100460004F913F912F911F910F910F900FBE0F90C1
:100470001F9018951F920F920FB60F9211248F9311
:10048000EF93FF9388B1887F88B9E898E998E8E608
:10049000F0E080818E7F8083EBE6F0E080818F7DCD
:1004A0008083E0E6F0E0808180648083FF91EF91BB
:1004B0008F910F900FBE0F901F901895A895E0E6B2
:1004C000F0E080818861808386E4808308950FB6A0
:1004D000F894A895809160008861809360001092E4
:1004E00060000FBEF8940E9419010E9453000E9400
:1004F0007401259A249A87B1876087B983B7817F71
:1005000083BF83B7816083BF80E091E00E943801A0
:10051000789483B7816083BF889583B78E7F83BFCC
:06052000F8CFF894FFCFB4
:0E05260042542066756E63696F6E612100009D
:00000001FF
